[
   {
      "author_association" : "CONTRIBUTOR",
      "body" : "Are you proposing an incompatible change to the existing signrawtransaction RPC call?\n",
      "created_at" : "2014-10-23T14:33:23Z",
      "html_url" : "https://github.com/bitcoin/bitcoin/issues/5120#issuecomment-60247837",
      "id" : 60247837,
      "issue_url" : "https://api.github.com/repos/bitcoin/bitcoin/issues/5120",
      "node_id" : "MDEyOklzc3VlQ29tbWVudDYwMjQ3ODM3",
      "performed_via_github_app" : null,
      "reactions" : {
         "+1" : 0,
         "-1" : 0,
         "confused" : 0,
         "eyes" : 0,
         "heart" : 0,
         "hooray" : 0,
         "laugh" : 0,
         "rocket" : 0,
         "total_count" : 0,
         "url" : "https://api.github.com/repos/bitcoin/bitcoin/issues/comments/60247837/reactions"
      },
      "updated_at" : "2014-10-23T14:33:23Z",
      "url" : "https://api.github.com/repos/bitcoin/bitcoin/issues/comments/60247837",
      "user" : {
         "avatar_url" : "https://avatars.githubusercontent.com/u/331997?v=4",
         "events_url" : "https://api.github.com/users/gavinandresen/events{/privacy}",
         "followers_url" : "https://api.github.com/users/gavinandresen/followers",
         "following_url" : "https://api.github.com/users/gavinandresen/following{/other_user}",
         "gists_url" : "https://api.github.com/users/gavinandresen/gists{/gist_id}",
         "gravatar_id" : "",
         "html_url" : "https://github.com/gavinandresen",
         "id" : 331997,
         "login" : "gavinandresen",
         "node_id" : "MDQ6VXNlcjMzMTk5Nw==",
         "organizations_url" : "https://api.github.com/users/gavinandresen/orgs",
         "received_events_url" : "https://api.github.com/users/gavinandresen/received_events",
         "repos_url" : "https://api.github.com/users/gavinandresen/repos",
         "site_admin" : false,
         "starred_url" : "https://api.github.com/users/gavinandresen/starred{/owner}{/repo}",
         "subscriptions_url" : "https://api.github.com/users/gavinandresen/subscriptions",
         "type" : "User",
         "url" : "https://api.github.com/users/gavinandresen"
      }
   },
   {
      "author_association" : "NONE",
      "body" : "No, I don't believe so, I think everything would be backwards compatible. There would be new JSON arguments that could be added, but they wouldn't be required to be there. And signrawtransaction would still work exactly as before when not used with these extra new JSON params. Signrawtransaction could just make a call to getdatatosign to do part of its work. \n",
      "created_at" : "2014-10-23T14:38:38Z",
      "html_url" : "https://github.com/bitcoin/bitcoin/issues/5120#issuecomment-60248671",
      "id" : 60248671,
      "issue_url" : "https://api.github.com/repos/bitcoin/bitcoin/issues/5120",
      "node_id" : "MDEyOklzc3VlQ29tbWVudDYwMjQ4Njcx",
      "performed_via_github_app" : null,
      "reactions" : {
         "+1" : 0,
         "-1" : 0,
         "confused" : 0,
         "eyes" : 0,
         "heart" : 0,
         "hooray" : 0,
         "laugh" : 0,
         "rocket" : 0,
         "total_count" : 0,
         "url" : "https://api.github.com/repos/bitcoin/bitcoin/issues/comments/60248671/reactions"
      },
      "updated_at" : "2014-10-23T14:39:07Z",
      "url" : "https://api.github.com/repos/bitcoin/bitcoin/issues/comments/60248671",
      "user" : {
         "avatar_url" : "https://avatars.githubusercontent.com/u/4519249?v=4",
         "events_url" : "https://api.github.com/users/scmorse/events{/privacy}",
         "followers_url" : "https://api.github.com/users/scmorse/followers",
         "following_url" : "https://api.github.com/users/scmorse/following{/other_user}",
         "gists_url" : "https://api.github.com/users/scmorse/gists{/gist_id}",
         "gravatar_id" : "",
         "html_url" : "https://github.com/scmorse",
         "id" : 4519249,
         "login" : "scmorse",
         "node_id" : "MDQ6VXNlcjQ1MTkyNDk=",
         "organizations_url" : "https://api.github.com/users/scmorse/orgs",
         "received_events_url" : "https://api.github.com/users/scmorse/received_events",
         "repos_url" : "https://api.github.com/users/scmorse/repos",
         "site_admin" : false,
         "starred_url" : "https://api.github.com/users/scmorse/starred{/owner}{/repo}",
         "subscriptions_url" : "https://api.github.com/users/scmorse/subscriptions",
         "type" : "User",
         "url" : "https://api.github.com/users/scmorse"
      }
   },
   {
      "author_association" : "CONTRIBUTOR",
      "body" : "Check out the new `bitcoin-tx` utility.  It is straightforward to add new \"calls\" as discrete elements there.  bitcoin-tx offers the same capabilities with `createrawtransaction` and `sendrawtransaction`.\n\nFor any RPCs which are \"pure functions\" -- they do not rely on bitcoind wallet data -- they can be used via this utility instead.  bitcoin-tx does not use RPC calls (at present), and does not access wallet data.\n\nLong term, \"pure function\" style use will be exported via utilities rather than RPCs.  e.g. You do not need to contact a server, simply to execute `decoderawtransaction`.\n",
      "created_at" : "2014-10-23T14:45:36Z",
      "html_url" : "https://github.com/bitcoin/bitcoin/issues/5120#issuecomment-60249709",
      "id" : 60249709,
      "issue_url" : "https://api.github.com/repos/bitcoin/bitcoin/issues/5120",
      "node_id" : "MDEyOklzc3VlQ29tbWVudDYwMjQ5NzA5",
      "performed_via_github_app" : null,
      "reactions" : {
         "+1" : 0,
         "-1" : 0,
         "confused" : 0,
         "eyes" : 0,
         "heart" : 0,
         "hooray" : 0,
         "laugh" : 0,
         "rocket" : 0,
         "total_count" : 0,
         "url" : "https://api.github.com/repos/bitcoin/bitcoin/issues/comments/60249709/reactions"
      },
      "updated_at" : "2014-10-23T14:46:15Z",
      "url" : "https://api.github.com/repos/bitcoin/bitcoin/issues/comments/60249709",
      "user" : {
         "avatar_url" : "https://avatars.githubusercontent.com/u/494411?v=4",
         "events_url" : "https://api.github.com/users/jgarzik/events{/privacy}",
         "followers_url" : "https://api.github.com/users/jgarzik/followers",
         "following_url" : "https://api.github.com/users/jgarzik/following{/other_user}",
         "gists_url" : "https://api.github.com/users/jgarzik/gists{/gist_id}",
         "gravatar_id" : "",
         "html_url" : "https://github.com/jgarzik",
         "id" : 494411,
         "login" : "jgarzik",
         "node_id" : "MDQ6VXNlcjQ5NDQxMQ==",
         "organizations_url" : "https://api.github.com/users/jgarzik/orgs",
         "received_events_url" : "https://api.github.com/users/jgarzik/received_events",
         "repos_url" : "https://api.github.com/users/jgarzik/repos",
         "site_admin" : false,
         "starred_url" : "https://api.github.com/users/jgarzik/starred{/owner}{/repo}",
         "subscriptions_url" : "https://api.github.com/users/jgarzik/subscriptions",
         "type" : "User",
         "url" : "https://api.github.com/users/jgarzik"
      }
   },
   {
      "author_association" : "NONE",
      "body" : "<p>So maybe <tt>getdatatosign</tt> should just be another utility added to <tt>bitcoin-tx</tt>? That seems to make sense. Could <tt>signrawtransaction</tt> still make use of the <tt>getdatatosign</tt> if this were the case?</p>\n\n<p>Would <tt>signrawtransaction</tt> be a method of <tt>bitcoin-tx</tt>? Is there any documentation on how the calls will be split up between <tt>bitcoin-cli</tt> and <tt>bitcoin-tx</tt>?</p>\n",
      "created_at" : "2014-10-23T15:14:23Z",
      "html_url" : "https://github.com/bitcoin/bitcoin/issues/5120#issuecomment-60254468",
      "id" : 60254468,
      "issue_url" : "https://api.github.com/repos/bitcoin/bitcoin/issues/5120",
      "node_id" : "MDEyOklzc3VlQ29tbWVudDYwMjU0NDY4",
      "performed_via_github_app" : null,
      "reactions" : {
         "+1" : 0,
         "-1" : 0,
         "confused" : 0,
         "eyes" : 0,
         "heart" : 0,
         "hooray" : 0,
         "laugh" : 0,
         "rocket" : 0,
         "total_count" : 0,
         "url" : "https://api.github.com/repos/bitcoin/bitcoin/issues/comments/60254468/reactions"
      },
      "updated_at" : "2014-10-23T15:27:04Z",
      "url" : "https://api.github.com/repos/bitcoin/bitcoin/issues/comments/60254468",
      "user" : {
         "avatar_url" : "https://avatars.githubusercontent.com/u/4519249?v=4",
         "events_url" : "https://api.github.com/users/scmorse/events{/privacy}",
         "followers_url" : "https://api.github.com/users/scmorse/followers",
         "following_url" : "https://api.github.com/users/scmorse/following{/other_user}",
         "gists_url" : "https://api.github.com/users/scmorse/gists{/gist_id}",
         "gravatar_id" : "",
         "html_url" : "https://github.com/scmorse",
         "id" : 4519249,
         "login" : "scmorse",
         "node_id" : "MDQ6VXNlcjQ1MTkyNDk=",
         "organizations_url" : "https://api.github.com/users/scmorse/orgs",
         "received_events_url" : "https://api.github.com/users/scmorse/received_events",
         "repos_url" : "https://api.github.com/users/scmorse/repos",
         "site_admin" : false,
         "starred_url" : "https://api.github.com/users/scmorse/starred{/owner}{/repo}",
         "subscriptions_url" : "https://api.github.com/users/scmorse/subscriptions",
         "type" : "User",
         "url" : "https://api.github.com/users/scmorse"
      }
   },
   {
      "author_association" : "CONTRIBUTOR",
      "body" : "@scmorse  getrawtransaction?\n",
      "created_at" : "2014-10-23T15:16:18Z",
      "html_url" : "https://github.com/bitcoin/bitcoin/issues/5120#issuecomment-60254799",
      "id" : 60254799,
      "issue_url" : "https://api.github.com/repos/bitcoin/bitcoin/issues/5120",
      "node_id" : "MDEyOklzc3VlQ29tbWVudDYwMjU0Nzk5",
      "performed_via_github_app" : null,
      "reactions" : {
         "+1" : 0,
         "-1" : 0,
         "confused" : 0,
         "eyes" : 0,
         "heart" : 0,
         "hooray" : 0,
         "laugh" : 0,
         "rocket" : 0,
         "total_count" : 0,
         "url" : "https://api.github.com/repos/bitcoin/bitcoin/issues/comments/60254799/reactions"
      },
      "updated_at" : "2014-10-23T15:16:18Z",
      "url" : "https://api.github.com/repos/bitcoin/bitcoin/issues/comments/60254799",
      "user" : {
         "avatar_url" : "https://avatars.githubusercontent.com/u/494411?v=4",
         "events_url" : "https://api.github.com/users/jgarzik/events{/privacy}",
         "followers_url" : "https://api.github.com/users/jgarzik/followers",
         "following_url" : "https://api.github.com/users/jgarzik/following{/other_user}",
         "gists_url" : "https://api.github.com/users/jgarzik/gists{/gist_id}",
         "gravatar_id" : "",
         "html_url" : "https://github.com/jgarzik",
         "id" : 494411,
         "login" : "jgarzik",
         "node_id" : "MDQ6VXNlcjQ5NDQxMQ==",
         "organizations_url" : "https://api.github.com/users/jgarzik/orgs",
         "received_events_url" : "https://api.github.com/users/jgarzik/received_events",
         "repos_url" : "https://api.github.com/users/jgarzik/repos",
         "site_admin" : false,
         "starred_url" : "https://api.github.com/users/jgarzik/starred{/owner}{/repo}",
         "subscriptions_url" : "https://api.github.com/users/jgarzik/subscriptions",
         "type" : "User",
         "url" : "https://api.github.com/users/jgarzik"
      }
   },
   {
      "author_association" : "NONE",
      "body" : "Sorry, meant <tt>signrawtransaction</tt>. Changed my prev comment. \n",
      "created_at" : "2014-10-23T15:17:35Z",
      "html_url" : "https://github.com/bitcoin/bitcoin/issues/5120#issuecomment-60255016",
      "id" : 60255016,
      "issue_url" : "https://api.github.com/repos/bitcoin/bitcoin/issues/5120",
      "node_id" : "MDEyOklzc3VlQ29tbWVudDYwMjU1MDE2",
      "performed_via_github_app" : null,
      "reactions" : {
         "+1" : 0,
         "-1" : 0,
         "confused" : 0,
         "eyes" : 0,
         "heart" : 0,
         "hooray" : 0,
         "laugh" : 0,
         "rocket" : 0,
         "total_count" : 0,
         "url" : "https://api.github.com/repos/bitcoin/bitcoin/issues/comments/60255016/reactions"
      },
      "updated_at" : "2014-10-23T15:30:21Z",
      "url" : "https://api.github.com/repos/bitcoin/bitcoin/issues/comments/60255016",
      "user" : {
         "avatar_url" : "https://avatars.githubusercontent.com/u/4519249?v=4",
         "events_url" : "https://api.github.com/users/scmorse/events{/privacy}",
         "followers_url" : "https://api.github.com/users/scmorse/followers",
         "following_url" : "https://api.github.com/users/scmorse/following{/other_user}",
         "gists_url" : "https://api.github.com/users/scmorse/gists{/gist_id}",
         "gravatar_id" : "",
         "html_url" : "https://github.com/scmorse",
         "id" : 4519249,
         "login" : "scmorse",
         "node_id" : "MDQ6VXNlcjQ1MTkyNDk=",
         "organizations_url" : "https://api.github.com/users/scmorse/orgs",
         "received_events_url" : "https://api.github.com/users/scmorse/received_events",
         "repos_url" : "https://api.github.com/users/scmorse/repos",
         "site_admin" : false,
         "starred_url" : "https://api.github.com/users/scmorse/starred{/owner}{/repo}",
         "subscriptions_url" : "https://api.github.com/users/scmorse/subscriptions",
         "type" : "User",
         "url" : "https://api.github.com/users/scmorse"
      }
   },
   {
      "author_association" : "NONE",
      "body" : "@scmorse Thanks for the work. Could you provide a Use-case for this?\n\nI think its important to distinguish between internal utilities and API's. bitcoin-tx is not exposed to user-space in the same way the RPC is. RPC is widely known and documented.\n",
      "created_at" : "2014-11-01T10:28:55Z",
      "html_url" : "https://github.com/bitcoin/bitcoin/issues/5120#issuecomment-61364022",
      "id" : 61364022,
      "issue_url" : "https://api.github.com/repos/bitcoin/bitcoin/issues/5120",
      "node_id" : "MDEyOklzc3VlQ29tbWVudDYxMzY0MDIy",
      "performed_via_github_app" : null,
      "reactions" : {
         "+1" : 0,
         "-1" : 0,
         "confused" : 0,
         "eyes" : 0,
         "heart" : 0,
         "hooray" : 0,
         "laugh" : 0,
         "rocket" : 0,
         "total_count" : 0,
         "url" : "https://api.github.com/repos/bitcoin/bitcoin/issues/comments/61364022/reactions"
      },
      "updated_at" : "2014-11-01T10:33:42Z",
      "url" : "https://api.github.com/repos/bitcoin/bitcoin/issues/comments/61364022",
      "user" : {
         "avatar_url" : "https://avatars.githubusercontent.com/u/5390515?v=4",
         "events_url" : "https://api.github.com/users/benjiqq/events{/privacy}",
         "followers_url" : "https://api.github.com/users/benjiqq/followers",
         "following_url" : "https://api.github.com/users/benjiqq/following{/other_user}",
         "gists_url" : "https://api.github.com/users/benjiqq/gists{/gist_id}",
         "gravatar_id" : "",
         "html_url" : "https://github.com/benjiqq",
         "id" : 5390515,
         "login" : "benjiqq",
         "node_id" : "MDQ6VXNlcjUzOTA1MTU=",
         "organizations_url" : "https://api.github.com/users/benjiqq/orgs",
         "received_events_url" : "https://api.github.com/users/benjiqq/received_events",
         "repos_url" : "https://api.github.com/users/benjiqq/repos",
         "site_admin" : false,
         "starred_url" : "https://api.github.com/users/benjiqq/starred{/owner}{/repo}",
         "subscriptions_url" : "https://api.github.com/users/benjiqq/subscriptions",
         "type" : "User",
         "url" : "https://api.github.com/users/benjiqq"
      }
   },
   {
      "author_association" : "NONE",
      "body" : "This could be part of a <tt>bitcoin-tx</tt> utility, but it also can make use of information in the actual blockchain, so having it as part of the actual <tt>bitcoin-cli</tt> as well seems to make sense.\n\nSure, I can tell you how we are planning to use this and give an example.\n\nWe are creating an API that uses our servers to make and deal with raw transactions so that the user doesn't have to. Essentially, we use the <tt>getdatatosign</tt> RPC call to get the data that needs to be signed, send it to the phones, they sign it with their keys and return the result (R,S, pub key). Our server can then use these to complete the transaction. \n\nI actually just finished coding this up, using the Litecoin project as a starting point, and did an example of it working, so I'll show it below. This all takes place on the Litecoin testnet. \n\nSAMPLE REQUEST FROM PHONE:\n\n<pre>\n{\n    \"fee_per_kb\": 10000,\n    \"surplus_refund_address\": \"mrVKajRiXK7vCn3auzx2qb7Gd3cDUSiC6L\",\n    \"inputs_addresses\": [\n        \"mjYN7McYzwius96QGpDDZYXaaCR1ZkAX3a\",\n        \"mz7veJL7NPAsJqu5nuLWvRhpNkVHW6PjbR\"\n    ],\n    \"outputs_addresses\": [\n        {\n            \"address\": \"mrVKajRiXK7vCn3auzx2qb7Gd3cDUSiC6L\",\n            \"amount\": 5999000000\n        }\n    ]\n}\n</pre>\n\nSERVER FINDS THESE TX OUTS:\n\n<pre>\n(From tx: eb780798c67a9ec63129eace11d72df16f1ffacaf5ef23519d235f7ff670e488)\n[  \n  {  \n    \"value\":30.00000000,\n    \"n\":3,\n    \"scriptPubKey\":{  \n      \"asm\":\"OP_DUP OP_HASH160 2c24cca04e5115cac70191543293c41fc8589f56 OP_EQUALVERIFY OP_CHECKSIG\",\n      \"hex\":\"76a9142c24cca04e5115cac70191543293c41fc8589f5688ac\",\n      \"reqSigs\":1,\n      \"type\":\"pubkeyhash\",\n      \"addresses\":[  \n        \"mjYN7McYzwius96QGpDDZYXaaCR1ZkAX3a\"\n      ]\n    }\n  },\n  {  \n    \"value\":30.00000000,\n    \"n\":4,\n    \"scriptPubKey\":{  \n      \"asm\":\"OP_DUP OP_HASH160 cc0f71d3b6c2238d73aab4cab4226262eca9f1d4 OP_EQUALVERIFY OP_CHECKSIG\",\n      \"hex\":\"76a914cc0f71d3b6c2238d73aab4cab4226262eca9f1d488ac\",\n      \"reqSigs\":1,\n      \"type\":\"pubkeyhash\",\n      \"addresses\":[  \n        \"mz7veJL7NPAsJqu5nuLWvRhpNkVHW6PjbR\"\n      ]\n    }\n  }\n]\n</pre>\n\nFIRST MAKES THE RAW TRANSACTION:\n\n<pre>\n$ ./litecoind createrawtransaction '[{\"txid\":\"eb780798c67a9ec63129eace11d72df16f1ffacaf5ef23519d235f7ff670e488\", \"vout\":3}, {\"txid\":\"eb780798c67a9ec63129eace11d72df16f1ffacaf5ef23519d235f7ff670e488\", \"vout\":4}]' '{\"mrVKajRiXK7vCn3auzx2qb7Gd3cDUSiC6L\":59.99000000}'\n</pre>\n\n<pre>\n010000000288e470f67f5f239d5123eff5cafa1f6ff12dd711ceea2931c69e7ac6980778eb0300000000ffffffff88e470f67f5f239d5123eff5cafa1f6ff12dd711ceea2931c69e7ac6980778eb0400000000ffffffff01c0799165010000001976a914785a5258008e272dd1a434eef745fb1277abeee688ac00000000\n</pre>\n\n\f\nGET THE DATA THAT NEEDS TO BE SIGNED AND SEND IT TO THE PHONES:\n\n<pre>\n$ ./litecoind getdatatosign 010000000288e470f67f5f239d5123eff5cafa1f6ff12dd711ceea2931c69e7ac6980778eb0300000000ffffffff88e470f67f5f239d5123eff5cafa1f6ff12dd711ceea2931c69e7ac6980778eb0400000000ffffffff01c0799165010000001976a914785a5258008e272dd1a434eef745fb1277abeee688ac00000000\n</pre>\n\n<pre>\n[\n    {\n        \"txid\" : \"eb780798c67a9ec63129eace11d72df16f1ffacaf5ef23519d235f7ff670e488\",\n        \"vout\" : 3,\n        \"scriptPubKey\" : \"76a9142c24cca04e5115cac70191543293c41fc8589f5688ac\",\n        \"tosign\" : \"b4432ef245832428642ce9e83c6396f40fcf0e1e1614f2e85540b2568fd4d89d\",\n        \"pubkey\" : \"\",\n        \"r\" : \"\",\n        \"s\" : \"\",\n        \"address\" : \"mjYN7McYzwius96QGpDDZYXaaCR1ZkAX3a\",\n        \"type\" : \"pubkeyhash\"\n    },\n    {\n        \"txid\" : \"eb780798c67a9ec63129eace11d72df16f1ffacaf5ef23519d235f7ff670e488\",\n        \"vout\" : 4,\n        \"scriptPubKey\" : \"76a914cc0f71d3b6c2238d73aab4cab4226262eca9f1d488ac\",\n        \"tosign\" : \"4eba4e820bf61c91f48e805f4920418a092602070eb1dbdeae925e74c8ceb7a0\",\n        \"pubkey\" : \"\",\n        \"r\" : \"\",\n        \"s\" : \"\",\n        \"address\" : \"mz7veJL7NPAsJqu5nuLWvRhpNkVHW6PjbR\",\n        \"type\" : \"pubkeyhash\"\n    }\n]\n</pre>\n\nPHONES FILL IN THE DATA AND SEND BACK: \n\n<pre>\n\"hex\":\"010000000288e470f67f5f239d5123eff5cafa1f6ff12dd711ceea2931c69e7ac6980778eb0300000000ffffffff88e470f67f5f239d5123eff5cafa1f6ff12dd711ceea2931c69e7ac6980778eb0400000000ffffffff01c0799165010000001976a914785a5258008e272dd1a434eef745fb1277abeee688ac00000000\"\n...\n[\n    {\n        \"txid\" : \"eb780798c67a9ec63129eace11d72df16f1ffacaf5ef23519d235f7ff670e488\",\n        \"vout\" : 3,\n        \"scriptPubKey\" : \"76a9142c24cca04e5115cac70191543293c41fc8589f5688ac\",\n        \"tosign\" : \"b4432ef245832428642ce9e83c6396f40fcf0e1e1614f2e85540b2568fd4d89d\",\n        \"pubkey\" : \"030995f693606d7102dbce24273f939b7de15487713d8e884afcce3d37c359d767\",\n        \"r\" : \"ef0dfc1d06f39d9b01fa8248d2718e5b5e26430e820385671ee4f30b104162cd\",\n        \"s\" : \"979442b7d7838ae0cc29479ddc41d0b76810c0711e86104225b716159dbc31d2\",\n        \"address\" : \"mjYN7McYzwius96QGpDDZYXaaCR1ZkAX3a\",\n        \"type\" : \"pubkeyhash\"\n    },\n    {\n        \"txid\" : \"eb780798c67a9ec63129eace11d72df16f1ffacaf5ef23519d235f7ff670e488\",\n        \"vout\" : 4,\n        \"scriptPubKey\" : \"76a914cc0f71d3b6c2238d73aab4cab4226262eca9f1d488ac\",\n        \"tosign\" : \"4eba4e820bf61c91f48e805f4920418a092602070eb1dbdeae925e74c8ceb7a0\",\n        \"pubkey\" : \"0304ae97fe2acba599df9b523ec5219ae421cdae67657d57bd0c2c47c27dd42742\",\n        \"r\" : \"a7aa7f41e3889c48599db2d91ce69968155ea3e0e4643d9ceb4dbc44da9da3b5\",\n        \"s\" : \"4b0ed41fe0e0ec4a6459165e628f1269b63ae8e90309d340688a49d2d8d48b5d\",\n        \"address\" : \"mz7veJL7NPAsJqu5nuLWvRhpNkVHW6PjbR\",\n        \"type\" : \"pubkeyhash\"\n    }\n]\n</pre>\n\n\f\nSERVER BUNDLES THE RESULT INTO A TRANSACTION USING signrawtransaction:\n\n<pre>\n$ ./litecoind signrawtransaction \"010000000288e470f67f5f239d5123eff5cafa1f6ff12dd711ceea2931c69e7ac6980778eb0300000000ffffffff88e470f67f5f239d5123eff5cafa1f6ff12dd711ceea2931c69e7ac6980778eb0400000000ffffffff01c0799165010000001976a914785a5258008e272dd1a434eef745fb1277abeee688ac00000000\" '[{\"txid\" : \"eb780798c67a9ec63129eace11d72df16f1ffacaf5ef23519d235f7ff670e488\",\"vout\" : 3,\"scriptPubKey\" : \"76a9142c24cca04e5115cac70191543293c41fc8589f5688ac\",\"tosign\" : \"b4432ef245832428642ce9e83c6396f40fcf0e1e1614f2e85540b2568fd4d89d\",\"pubkey\" : \"030995f693606d7102dbce24273f939b7de15487713d8e884afcce3d37c359d767\",\"r\" : \"ef0dfc1d06f39d9b01fa8248d2718e5b5e26430e820385671ee4f30b104162cd\",\"s\" : \"979442b7d7838ae0cc29479ddc41d0b76810c0711e86104225b716159dbc31d2\",\"address\" : \"mjYN7McYzwius96QGpDDZYXaaCR1ZkAX3a\",\"type\" : \"pubkeyhash\"},{\"txid\" : \"eb780798c67a9ec63129eace11d72df16f1ffacaf5ef23519d235f7ff670e488\",\"vout\" : 4,\"scriptPubKey\" : \"76a914cc0f71d3b6c2238d73aab4cab4226262eca9f1d488ac\",\"tosign\" : \"4eba4e820bf61c91f48e805f4920418a092602070eb1dbdeae925e74c8ceb7a0\",\"pubkey\" : \"0304ae97fe2acba599df9b523ec5219ae421cdae67657d57bd0c2c47c27dd42742\",\"r\" : \"a7aa7f41e3889c48599db2d91ce69968155ea3e0e4643d9ceb4dbc44da9da3b5\",\"s\" : \"4b0ed41fe0e0ec4a6459165e628f1269b63ae8e90309d340688a49d2d8d48b5d\",\"address\" : \"mz7veJL7NPAsJqu5nuLWvRhpNkVHW6PjbR\",\"type\" : \"pubkeyhash\"}]'\n{\n    \"hex\" : \"010000000288e470f67f5f239d5123eff5cafa1f6ff12dd711ceea2931c69e7ac6980778eb030000006c493046022100ef0dfc1d06f39d9b01fa8248d2718e5b5e26430e820385671ee4f30b104162cd022100979442b7d7838ae0cc29479ddc41d0b76810c0711e86104225b716159dbc31d20121030995f693606d7102dbce24273f939b7de15487713d8e884afcce3d37c359d767ffffffff88e470f67f5f239d5123eff5cafa1f6ff12dd711ceea2931c69e7ac6980778eb040000006b483045022100a7aa7f41e3889c48599db2d91ce69968155ea3e0e4643d9ceb4dbc44da9da3b502204b0ed41fe0e0ec4a6459165e628f1269b63ae8e90309d340688a49d2d8d48b5d01210304ae97fe2acba599df9b523ec5219ae421cdae67657d57bd0c2c47c27dd42742ffffffff01c0799165010000001976a914785a5258008e272dd1a434eef745fb1277abeee688ac00000000\",\n    \"complete\" : true\n}\n</pre>\n\n<pre>\n$ ./litecoind sendrawtransaction 010000000288e470f67f5f239d5123eff5cafa1f6ff12dd711ceea2931c69e7ac6980778eb030000006c493046022100ef0dfc1d06f39d9b01fa8248d2718e5b5e26430e820385671ee4f30b104162cd022100979442b7d7838ae0cc29479ddc41d0b76810c0711e86104225b716159dbc31d20121030995f693606d7102dbce24273f939b7de15487713d8e884afcce3d37c359d767ffffffff88e470f67f5f239d5123eff5cafa1f6ff12dd711ceea2931c69e7ac6980778eb040000006b483045022100a7aa7f41e3889c48599db2d91ce69968155ea3e0e4643d9ceb4dbc44da9da3b502204b0ed41fe0e0ec4a6459165e628f1269b63ae8e90309d340688a49d2d8d48b5d01210304ae97fe2acba599df9b523ec5219ae421cdae67657d57bd0c2c47c27dd42742ffffffff01c0799165010000001976a914785a5258008e272dd1a434eef745fb1277abeee688ac00000000\n</pre>\n\n<pre>\n26c929fe09c59f02d613a5d501eafaacd0f1eb6d5400a06c78fba10d57013db8\n</pre>\n",
      "created_at" : "2014-11-02T16:04:17Z",
      "html_url" : "https://github.com/bitcoin/bitcoin/issues/5120#issuecomment-61412091",
      "id" : 61412091,
      "issue_url" : "https://api.github.com/repos/bitcoin/bitcoin/issues/5120",
      "node_id" : "MDEyOklzc3VlQ29tbWVudDYxNDEyMDkx",
      "performed_via_github_app" : null,
      "reactions" : {
         "+1" : 0,
         "-1" : 0,
         "confused" : 0,
         "eyes" : 0,
         "heart" : 0,
         "hooray" : 0,
         "laugh" : 0,
         "rocket" : 0,
         "total_count" : 0,
         "url" : "https://api.github.com/repos/bitcoin/bitcoin/issues/comments/61412091/reactions"
      },
      "updated_at" : "2014-11-02T16:04:17Z",
      "url" : "https://api.github.com/repos/bitcoin/bitcoin/issues/comments/61412091",
      "user" : {
         "avatar_url" : "https://avatars.githubusercontent.com/u/4519249?v=4",
         "events_url" : "https://api.github.com/users/scmorse/events{/privacy}",
         "followers_url" : "https://api.github.com/users/scmorse/followers",
         "following_url" : "https://api.github.com/users/scmorse/following{/other_user}",
         "gists_url" : "https://api.github.com/users/scmorse/gists{/gist_id}",
         "gravatar_id" : "",
         "html_url" : "https://github.com/scmorse",
         "id" : 4519249,
         "login" : "scmorse",
         "node_id" : "MDQ6VXNlcjQ1MTkyNDk=",
         "organizations_url" : "https://api.github.com/users/scmorse/orgs",
         "received_events_url" : "https://api.github.com/users/scmorse/received_events",
         "repos_url" : "https://api.github.com/users/scmorse/repos",
         "site_admin" : false,
         "starred_url" : "https://api.github.com/users/scmorse/starred{/owner}{/repo}",
         "subscriptions_url" : "https://api.github.com/users/scmorse/subscriptions",
         "type" : "User",
         "url" : "https://api.github.com/users/scmorse"
      }
   }
]
